{
  "contractName": "XManFactory",
  "abi": [
    {
      "anonymous": false,
      "inputs": [
        {
          "indexed": false,
          "internalType": "uint256",
          "name": "xManId",
          "type": "uint256"
        },
        {
          "indexed": false,
          "internalType": "string",
          "name": "name",
          "type": "string"
        },
        {
          "indexed": false,
          "internalType": "uint256",
          "name": "dna",
          "type": "uint256"
        }
      ],
      "name": "NewXMan",
      "type": "event"
    },
    {
      "inputs": [
        {
          "internalType": "uint256",
          "name": "",
          "type": "uint256"
        }
      ],
      "name": "xMenToOwner",
      "outputs": [
        {
          "internalType": "address",
          "name": "",
          "type": "address"
        }
      ],
      "stateMutability": "view",
      "type": "function"
    },
    {
      "inputs": [
        {
          "internalType": "uint256",
          "name": "",
          "type": "uint256"
        }
      ],
      "name": "xmen",
      "outputs": [
        {
          "internalType": "string",
          "name": "name",
          "type": "string"
        },
        {
          "internalType": "uint256",
          "name": "dna",
          "type": "uint256"
        }
      ],
      "stateMutability": "view",
      "type": "function"
    },
    {
      "inputs": [
        {
          "internalType": "string",
          "name": "_name",
          "type": "string"
        }
      ],
      "name": "createRandomXMan",
      "outputs": [],
      "stateMutability": "nonpayable",
      "type": "function"
    }
  ],
  "bytecode": "0x60806040526010600055600054600a6200001a91906200008c565b6001553480156200002a57600080fd5b506200020f565b6000808291508390505b600185111562000083578086048111156200005b576200005a620001d3565b5b60018516156200006b5780820291505b80810290506200007b8562000202565b94506200003b565b94509492505050565b60006200009982620001c9565b9150620000a683620001c9565b9250620000d57fffffffffffffffffffffffffffffffffffffffffffffffffffffffffffffffff8484620000dd565b905092915050565b600082620000ef5760019050620001c2565b81620000ff5760009050620001c2565b8160018114620001185760028114620001235762000159565b6001915050620001c2565b60ff841115620001385762000137620001d3565b5b8360020a915084821115620001525762000151620001d3565b5b50620001c2565b5060208310610133831016604e8410600b8410161715620001935782820a9050838111156200018d576200018c620001d3565b5b620001c2565b620001a2848484600162000031565b92509050818404811115620001bc57620001bb620001d3565b5b81810290505b9392505050565b6000819050919050565b7f4e487b7100000000000000000000000000000000000000000000000000000000600052601160045260246000fd5b60008160011c9050919050565b610936806200021f6000396000f3fe608060405234801561001057600080fd5b50600436106100415760003560e01c8063140e868e1461004657806327cb4f75146100765780632e8ded1714610092575b600080fd5b610060600480360381019061005b9190610519565b6100c3565b60405161006d91906105e1565b60405180910390f35b610090600480360381019061008b91906104d8565b6100f6565b005b6100ac60048036038101906100a79190610519565b61015d565b6040516100ba9291906105fc565b60405180910390f35b60036020528060005260406000206000915054906101000a900473ffffffffffffffffffffffffffffffffffffffff1681565b6000600460003373ffffffffffffffffffffffffffffffffffffffff1673ffffffffffffffffffffffffffffffffffffffff168152602001908152602001600020541461014257600080fd5b600061014d82610219565b9050610159828261025e565b5050565b6002818154811061016d57600080fd5b906000526020600020906002020160009150905080600001805461019090610770565b80601f01602080910402602001604051908101604052809291908181526020018280546101bc90610770565b80156102095780601f106101de57610100808354040283529160200191610209565b820191906000526020600020905b8154815290600101906020018083116101ec57829003601f168201915b5050505050908060010154905082565b6000808260405160200161022d91906105ca565b6040516020818303038152906040528051906020012060001c90506001548161025691906107eb565b915050919050565b6002604051806040016040528084815260200183815250908060018154018082558091505060019003906000526020600020906002020160009091909190915060008201518160000190805190602001906102ba9291906103b8565b5060208201518160010155505060006002805490509050336003600083815260200190815260200160002060006101000a81548173ffffffffffffffffffffffffffffffffffffffff021916908373ffffffffffffffffffffffffffffffffffffffff160217905550600460003373ffffffffffffffffffffffffffffffffffffffff1673ffffffffffffffffffffffffffffffffffffffff1681526020019081526020016000206000815480929190610373906107a2565b91905055507fbf0dee29f8a50deeb7ebe2396e624d5941d2f5a68012f991a47b207c9fe28c858184846040516103ab9392919061062c565b60405180910390a1505050565b8280546103c490610770565b90600052602060002090601f0160209004810192826103e6576000855561042d565b82601f106103ff57805160ff191683800117855561042d565b8280016001018555821561042d579182015b8281111561042c578251825591602001919060010190610411565b5b50905061043a919061043e565b5090565b5b8082111561045757600081600090555060010161043f565b5090565b600061046e6104698461069b565b61066a565b90508281526020810184848401111561048657600080fd5b61049184828561072e565b509392505050565b600082601f8301126104aa57600080fd5b81356104ba84826020860161045b565b91505092915050565b6000813590506104d2816108e9565b92915050565b6000602082840312156104ea57600080fd5b600082013567ffffffffffffffff81111561050457600080fd5b61051084828501610499565b91505092915050565b60006020828403121561052b57600080fd5b6000610539848285016104c3565b91505092915050565b61054b816106f2565b82525050565b600061055c826106cb565b61056681856106d6565b935061057681856020860161073d565b61057f816108d8565b840191505092915050565b6000610595826106cb565b61059f81856106e7565b93506105af81856020860161073d565b80840191505092915050565b6105c481610724565b82525050565b60006105d6828461058a565b915081905092915050565b60006020820190506105f66000830184610542565b92915050565b600060408201905081810360008301526106168185610551565b905061062560208301846105bb565b9392505050565b600060608201905061064160008301866105bb565b81810360208301526106538185610551565b905061066260408301846105bb565b949350505050565b6000604051905081810181811067ffffffffffffffff82111715610691576106906108a9565b5b8060405250919050565b600067ffffffffffffffff8211156106b6576106b56108a9565b5b601f19601f8301169050602081019050919050565b600081519050919050565b600082825260208201905092915050565b600081905092915050565b60006106fd82610704565b9050919050565b600073ffffffffffffffffffffffffffffffffffffffff82169050919050565b6000819050919050565b82818337600083830152505050565b60005b8381101561075b578082015181840152602081019050610740565b8381111561076a576000848401525b50505050565b6000600282049050600182168061078857607f821691505b6020821081141561079c5761079b61087a565b5b50919050565b60006107ad82610724565b91507fffffffffffffffffffffffffffffffffffffffffffffffffffffffffffffffff8214156107e0576107df61081c565b5b600182019050919050565b60006107f682610724565b915061080183610724565b9250826108115761081061084b565b5b828206905092915050565b7f4e487b7100000000000000000000000000000000000000000000000000000000600052601160045260246000fd5b7f4e487b7100000000000000000000000000000000000000000000000000000000600052601260045260246000fd5b7f4e487b7100000000000000000000000000000000000000000000000000000000600052602260045260246000fd5b7f4e487b7100000000000000000000000000000000000000000000000000000000600052604160045260246000fd5b6000601f19601f8301169050919050565b6108f281610724565b81146108fd57600080fd5b5056fea264697066735822122086ea743ee9a907f5d286bfc6b429724970373c1bda2103b5a1950db5a114f76f64736f6c63430008000033",
  "immutableReferences": {},
  "source": "pragma solidity ^0.8.0;\r\n\r\ncontract XManFactory {\r\n    \r\n    uint256 dnaDigits = 16;\r\n    uint dnaModulus = 10 ** dnaDigits;\r\n    \r\n    event NewXMan(uint xManId, string name, uint dna);\r\n    \r\n    struct XMan {\r\n        string name;\r\n        uint dna;\r\n    }\r\n    \r\n    XMan[] public xmen;\r\n    \r\n    mapping (uint => address) public xMenToOwner;\r\n    mapping (address => uint) ownerXManCount;\r\n    \r\n    function _createXMan(string memory _name, uint _dna) internal {\r\n        xmen.push(XMan(_name, _dna));\r\n        uint256 id = xmen.length;\r\n        \r\n        xMenToOwner[id] = msg.sender;\r\n        ownerXManCount[msg.sender]++;\r\n        \r\n        emit NewXMan(id, _name, _dna);\r\n    }\r\n    \r\n    function _generateRandomDna(string memory _str) private view returns (uint) {\r\n        uint rand = uint(keccak256(abi.encodePacked(_str)));\r\n        return rand % dnaModulus;\r\n    }\r\n    \r\n    function createRandomXMan(string memory _name) public {\r\n        require(ownerXManCount[msg.sender] == 0);\r\n        \r\n        uint randDna = _generateRandomDna(_name);\r\n        _createXMan(_name, randDna);\r\n    }\r\n\r\n    \r\n}",
  "sourcePath": "C:\\Users\\Tristan\\Documents\\GitHub\\BlockChain\\contracts\\XManFactory.sol",
  "compiler": {
    "name": "solc",
    "version": "0.8.0+commit.c7dfd78e.Emscripten.clang"
  },
  "schemaVersion": "3.4.4",
  "updatedAt": "2022-01-28T22:30:33.906Z",
  "devdoc": {
    "kind": "dev",
    "methods": {},
    "version": 1
  },
  "userdoc": {
    "kind": "user",
    "methods": {},
    "version": 1
  }
}